:020000040000FA
:020000004D2988
:08000800AF2982073F340634E2
:100010005B344F3466346D347D3407347F346F3451
:10002000BC01BB01BA016430BC0ABF02031814282A
:10003000C003C01F1428BC03BF070A30BB0ABF029D
:1000400003181D28BB03BF073F08BA0008002000A3
:10005000AB010C1200000C160000AB0B29280C128F
:100060000C160C120C16AB0B2F280C1208002200D9
:1000700082309704171F3A287C30472021001C0843
:100080002000AC0021001B082000AD00080021006A
:100090009D00C0309E001D140830FF3E031D4D28FA
:1000A0009D149D18512800001D1008005130B50006
:1000B000D730B4002C08B7002D08B60098203808B7
:1000C000AF003908AE000800372056202F08BF00C7
:1000D0002E08C000BE203B08A7003A08A800080070
:1000E00004307B2021001C082000B00021001B08E8
:1000F0002000B100080021009D00C3309E001D14A7
:100100000830FF3E031D81289D149D18852800009E
:100110001D10080070200310B10DB00D3108BF0094
:100120003008C000BE203D08A9003C08AA00080015
:10013000B801B9010130B200B301B71BA528031003
:10014000B20DB30DB60DB70D9D2836083402C100AF
:100150000030031C013037073502031CB628B500F8
:100160004108B4003208B8073308B9070310B70CC8
:10017000B60CB30CB20C031CA528080003101030F9
:10018000A000C201C301C401BF0DC00DC40DC30D49
:10019000C20DA00BCC28E328443084008501D9206F
:1001A000433084008501D920423084008501D92064
:1001B000C42803300007C100C11980003030000797
:1001C000C100C11B800044080F39BA00440E0F392A
:1001D000BB0043080F39BC00430E0F39BD00420875
:1001E0000F39BE000800F428F52808002000B430BC
:1001F000A200F320A20BF9280800200080308A001A
:100200003B080520A600A609260821008E00200034
:1002100026088E00261F0F2921000C151329210006
:100220000C1120000C110800200080308A003A08D0
:100230000520A600260921008E00200026088E0039
:10024000261F272921000C1120000C152929210027
:100250000C150800200046108C1D3E290C180800C3
:10026000A30120003B30A50046154614A40A6430C3
:100270002402031C4C29A401A40A0800A301240899
:10028000031D4329A40A20003B30A500461546144F
:10029000A40B4C296330A400080021006A309900A7
:1002A0001A1E50291A1C522921000F308C002100DF
:1002B0003F308E00210053309500240009308C001F
:1002C0008E012300230002308C0023008E01642065
:1002D0008A202100023099009A1C6C2920002D30C0
:1002E000A2002708BB002808BA00FD201421200026
:1002F000A20B752920002D30A2002908BB002A0876
:10030000BA00FD2014212000A20B812921003F30DA
:100310008E0021000C15220004308C002200FF30DA
:100320008E0020000A30A500A401C501C601A3016A
:1003300020000F3095000B118B168B174508031901
:100340009E29461DAC298B1320000A30A5002720CA
:10035000F620F620A50BA72921008C16AE290B113B
:1003600020000C309500C61CBA29C6102A21461C54
:10037000EF29D229C6142A210A3023020318C129E1
:10038000A30A2000A503FF302506031DD2293B3018
:10039000A50024080319CE29A40BD229200001307E
:1003A000C500EF292408BF00C00110202000143030
:1003B000A200FD20142121003F308E0021000C15E9
:1003C000200023080319EC29A100A1030319EC293B
:1003D000A2030319EF29E5292000A20BD929200047
:0203E000090012
:020000040001F9
:02000E00840963
:02001000FF1ED1
:00000001FF
